:020000040800F2
:1000000000500020791E0008791B00087B1B0008A7
:100010007D1B00087F1B0008811B000800000000FA
:10002000000000000000000000000000831B00082A
:10003000851B000800000000871B0008891B0008C2
:10004000C11E0008C11E0008C11E0008C11E000814
:10005000C11E0008C11E0008C11E0008C11E000804
:10006000C11E0008C11E0008C11E0008C11E0008F4
:10007000C11E0008C11E0008C11E0008C11E0008E4
:10008000C11E0008C11E0008C11E0008C11E0008D4
:10009000C11E0008C11E0008C11E0008C11E0008C4
:1000A000C11E0008C11E0008C11E0008C11E0008B4
:1000B000C11E0008C11E0008C11E0008C11E0008A4
:1000C000C11E0008C11E0008C11E0008C11E000894
:1000D000C11E0008C11E0008C11E0008C11E000884
:1000E000C11E0008C11E0008C11E0008000000005B
:1000F0000000000000000000000000000000000000
:0C01000000000000000000005FF808F1A3
:1001100010B5054C237833B9044B13B10448AFF341
:1001200000800123237010BDF809002000000000AA
:1001300068B9000808B5034B1BB103490348AFF386
:10014000008008BD00000000FC09002068B900081C
:1001500081F0004102E000BF83F0004330B54FEA78
:1001600041044FEA430594EA050F08BF90EA020FE5
:100170001FBF54EA000C55EA020C7FEA645C7FEA78
:10018000655C00F0E2804FEA5454D4EB5555B8BF9B
:100190006D420CDD2C4480EA020281EA030382EA0C
:1001A000000083EA010180EA020281EA0303362D9E
:1001B00088BF30BD11F0004F4FEA01314FF4801C71
:1001C0004CEA113102D0404261EB410113F0004F83
:1001D0004FEA03334CEA133302D0524263EB43033A
:1001E00094EA050F00F0A780A4F10104D5F1200ED8
:1001F0000DDB02FA0EFC22FA05F2801841F1000133
:1002000003FA0EF2801843FA05F359410EE0A5F106
:1002100020050EF1200E012A03FA0EFC28BF4CF037
:10022000020C43FA05F3C01851EBE37101F00045ED
:1002300007D54FF0000EDCF1000C7EEB00006EEBFA
:100240000101B1F5801F1BD3B1F5001F0CD3490884
:100250005FEA30004FEA3C0C04F101044FEA4452DB
:1002600012F5800F80F09A80BCF1004F08BF5FEA62
:10027000500C50F1000041EB045141EA050130BD42
:100280005FEA4C0C404141EB0101013C28BFB1F554
:10029000801FE9D291F0000F04BF01460020B1FA9F
:1002A00081F308BF2033A3F10B03B3F120020CDA72
:1002B0000C3208DD02F1140CC2F10C0201FA0CF050
:1002C00021FA02F10CE002F11402D8BFC2F1200CB5
:1002D00001FA02F120FA0CFCDCBF41EA0C0190406B
:1002E000E41AA2BF01EB0451294330BD6FEA0404B4
:1002F0001F3C1CDA0C340EDC04F11404C4F120029F
:1003000020FA04F001FA02F340EA030021FA04F3B0
:1003100045EA030130BDC4F10C04C4F1200220FA07
:1003200002F001FA04F340EA0300294630BD21FA45
:1003300004F0294630BD94F0000F83F4801306BF0B
:1003400081F480110134013D4EE77FEA645C18BFFF
:100350007FEA655C29D094EA050F08BF90EA020F96
:1003600005D054EA000C04BF1946104630BD91EA8E
:10037000030F1EBF0021002030BD5FEA545C05D191
:100380004000494128BF41F0004130BD14F58004D0
:100390003CBF01F5801130BD01F0004545F0FE4144
:1003A00041F470014FF0000030BD7FEA645C1ABF79
:1003B000194610467FEA655C1CBF0B46024650EAB0
:1003C000013406BF52EA033591EA030F41F40021DC
:1003D00030BD00BF90F0000F04BF0021704730B562
:1003E0004FF4806404F132044FF000054FF0000137
:1003F00050E700BF90F0000F04BF0021704730B5F8
:100400004FF4806404F1320410F0004548BF4042CC
:100410004FF000013EE700BF42004FEAE2014FEA21
:1004200031014FEA02701FBF12F07F4393F07F4FFC
:1004300081F06051704732F07F4208BF704793F0FF
:100440007F4F04BF41F40021704730B54FF4607412
:1004500001F0004521F000411CE700BF50EA010215
:1004600008BF704730B54FF000050AE050EA0102BE
:1004700008BF704730B511F0004502D5404261EB2E
:1004800041014FF4806404F132045FEA915C3FF46F
:10049000D8AE4FF003025FEADC0C18BF03325FEA0C
:1004A000DC0C18BF033202EBDC02C2F1200300FABD
:1004B00003FC20FA02F001FA03FE40EA0E0021FAE2
:1004C00002F11444BDE600BF70B54FF0FF0C4CF4D0
:1004D000E06C1CEA11541DBF1CEA135594EA0C0F82
:1004E00095EA0C0F00F0DEF82C4481EA030621EABD
:1004F0004C5123EA4C5350EA013518BF52EA0335F8
:1005000041F4801143F4801338D0A0FB02CE4FF0A9
:100510000005E1FB02E506F00042E0FB03E54FF0D9
:100520000006E1FB03569CF0000F18BF4EF0010ED1
:10053000A4F1FF04B6F5007F64F5407404D25FEACD
:100540004E0E6D4146EB060642EAC62141EA555180
:100550004FEAC52040EA5E504FEACE2EB4F1FD0CC2
:1005600088BFBCF5E06F1ED8BEF1004F08BF5FEA40
:10057000500E50F1000041EB045170BD06F00046F2
:1005800046EA010140EA020081EA0301B4EB5C049F
:10059000C2BFD4EB0C0541EA045170BD41F4801197
:1005A0004FF0000E013C00F3AB8014F1360FDEBFBC
:1005B000002001F0004170BDC4F10004203C35DA98
:1005C0000C341BDC04F11404C4F1200500FA05F31B
:1005D00020FA04F001FA05F240EA020001F00042BC
:1005E00021F0004110EBD37021FA04F642EB060132
:1005F0005EEA430E08BF20EAD37070BDC4F10C045C
:10060000C4F1200500FA04F320FA05F001FA04F21F
:1006100040EA020001F0004110EBD37041F100010B
:100620005EEA430E08BF20EAD37070BDC4F1200516
:1006300000FA05F24EEA020E20FA04F301FA05F27E
:1006400043EA020321FA04F001F0004121FA04F226
:1006500020EA020000EBD3705EEA430E08BF20EAF6
:10066000D37070BD94F0000F0FD101F00046400030
:1006700041EB010111F4801F08BF013CF7D041EAB2
:10068000060195F0000F18BF704703F000465200B6
:1006900043EB030313F4801F08BF013DF7D043EA87
:1006A0000603704794EA0C0F0CEA135518BF95EA3D
:1006B0000C0F0CD050EA410618BF52EA4306D1D1C4
:1006C00081EA030101F000414FF0000070BD50EAE3
:1006D000410606BF1046194652EA430619D094EA6D
:1006E0000C0F02D150EA013613D195EA0C0F05D157
:1006F00052EA03361CBF104619460AD181EA0301AB
:1007000001F0004141F0FE4141F470014FF0000062
:1007100070BD41F0FE4141F4780170BD70B54FF0FD
:10072000FF0C4CF4E06C1CEA11541DBF1CEA13557D
:1007300094EA0C0F95EA0C0F00F0A7F8A4EB05045F
:1007400081EA030E52EA03354FEA013100F0888056
:100750004FEA03334FF0805545EA131343EA12631F
:100760004FEA022245EA111545EA10654FEA0026D4
:100770000EF000419D4208BF964244F1FD0404F58D
:10078000407402D25B084FEA3202B61A65EB0305E9
:100790005B084FEA32024FF480104FF4002CB6EBA6
:1007A000020E75EB030E22BFB61A754640EA0C0026
:1007B0005B084FEA3202B6EB020E75EB030E22BF66
:1007C000B61A754640EA5C005B084FEA3202B6EBA7
:1007D000020E75EB030E22BFB61A754640EA9C0066
:1007E0005B084FEA3202B6EB020E75EB030E22BF36
:1007F000B61A754640EADC0055EA060E18D04FEAF4
:10080000051545EA16754FEA06164FEAC30343EA93
:1008100052734FEAC2025FEA1C1CC0D111F4801F60
:100820000BD141EA00014FF000004FF0004CB6E759
:1008300011F4801F04BF01430020B4F1FD0C88BFF8
:10084000BCF5E06F3FF6AFAEB5EB030C04BFB6EB03
:10085000020C5FEA500C50F1000041EB045170BDF6
:100860000EF0004E4EEA113114EB5C04C2BFD4EB23
:100870000C0541EA045170BD41F480114FF0000EA7
:10088000013C90E645EA060E8DE60CEA135594EA23
:100890000C0F08BF95EA0C0F3FF43BAF94EA0C0F26
:1008A0000AD150EA01347FF434AF95EA0C0F7FF49B
:1008B00025AF104619462CE795EA0C0F06D152EAEF
:1008C00003353FF4FDAE1046194622E750EA4106D3
:1008D00018BF52EA43067FF4C5AE50EA41047FF4E4
:1008E0000DAF52EA43057FF4EBAE12E780F0004013
:1008F00002E000BF81F0004142001FBF5FEA4103F8
:1009000092EA030F7FEA226C7FEA236C6AD04FEAF7
:100910001262D2EB1363C1BFD2184140484041403C
:10092000B8BF5B42192B88BF704710F0004F40F4EE
:10093000000020F07F4018BF404211F0004F41F40A
:10094000000121F07F4118BF494292EA030F3FD0D6
:10095000A2F1010241FA03FC10EB0C00C3F12003E9
:1009600001FA03F100F0004302D5494260EB400078
:10097000B0F5000F13D3B0F1807F06D340084FEAE3
:10098000310102F10102FE2A51D2B1F1004F40EBD8
:10099000C25008BF20F0010040EA03007047490040
:1009A00040EB0000013A28BFB0F5000FEDD2B0FADD
:1009B00080FCACF1080CB2EB0C0200FA0CF0AABF00
:1009C00000EBC25052421843BCBFD040184370479E
:1009D00092F0000F81F4000106BF80F400000132A4
:1009E000013BB5E74FEA41037FEA226C18BF7FEA7B
:1009F000236C21D092EA030F04D092F0000F08BFBD
:100A00000846704790EA010F1CBF0020704712F0A3
:100A10007F4F04D1400028BF40F00040704712F1E2
:100A200000723CBF00F50000704700F0004343F047
:100A3000FE4040F4000070477FEA226216BF08467D
:100A40007FEA23630146420206BF5FEA412390EA40
:100A5000010F40F4800070474FF0000304E000BF36
:100A600010F0004348BF40425FEA000C08BF7047E7
:100A700043F0964301464FF000001CE050EA0102AB
:100A800008BF70474FF000030AE000BF50EA0102C0
:100A900008BF704711F0004302D5404261EB4101AD
:100AA0005FEA010C02BF84460146002043F0B643D2
:100AB00008BFA3F18053A3F50003BCFA8CF2083AF7
:100AC000A3EBC25310DB01FA02FC634400FA02FC00
:100AD000C2F12002BCF1004F20FA02F243EB020007
:100AE00008BF20F00100704702F1200201FA02FC69
:100AF000C2F1200250EA4C0021FA02F243EB02005C
:100B000008BF20EADC7070474FF0FF0C1CEAD0529F
:100B10001EBF1CEAD15392EA0C0F93EA0C0F6FD060
:100B20001A4480EA010C400218BF5FEA41211ED03E
:100B30004FF0006343EA501043EA5111A0FB01312A
:100B40000CF00040B1F5000F3EBF490041EAD371FF
:100B50005B0040EA010062F17F02FD2A1DD8B3F17B
:100B6000004F40EBC25008BF20F00100704790F0EA
:100B7000000F0CF0004C08BF49024CEA502040EA3C
:100B800051207F3AC2BFD2F1FF0340EAC250704702
:100B900040F400004FF00003013A5DDC12F1190F40
:100BA000DCBF00F000407047C2F10002410021FAB2
:100BB00002F1C2F1200200FA02FC5FEA310040F1CA
:100BC000000053EA4C0308BF20EADC70704792F043
:100BD000000F00F0004C02BF400010F4000F013A7B
:100BE000F9D040EA0C0093F0000F01F0004C02BF76
:100BF000490011F4000F013BF9D041EA0C018FE7E5
:100C00000CEAD15392EA0C0F18BF93EA0C0F0AD0EA
:100C100030F0004C18BF31F0004CD8D180EA010010
:100C200000F00040704790F0000F17BF90F0004FA9
:100C3000084691F0000F91F0004F14D092EA0C0F8B
:100C400001D142020FD193EA0C0F03D14B0218BF1E
:100C5000084608D180EA010000F0004040F0FE4064
:100C600040F40000704740F0FE4040F44000704700
:100C70004FF0FF0C1CEAD0521EBF1CEAD15392EA7F
:100C80000C0F93EA0C0F69D0A2EB030280EA010C6F
:100C900049024FEA402037D04FF0805343EA111108
:100CA00043EA10130CF000408B4238BF5B0042F166
:100CB0007D024FF4000C8B4224BF5B1A40EA0C000B
:100CC000B3EB510F24BFA3EB510340EA5C00B3EB3D
:100CD000910F24BFA3EB910340EA9C00B3EBD10F2B
:100CE00024BFA3EBD10340EADC001B0118BF5FEA7D
:100CF0001C1CE0D1FD2A3FF650AF8B4240EBC250A6
:100D000008BF20F0010070470CF0004C4CEA502066
:100D10007F32C2BFD2F1FF0340EAC250704740F4B5
:100D200000004FF00003013A37E792F0000F00F0A7
:100D3000004C02BF400010F4000F013AF9D040EA25
:100D40000C0093F0000F01F0004C02BF490011F4B9
:100D5000000F013BF9D041EA0C0195E70CEAD153B1
:100D600092EA0C0F08D142027FF47DAF93EA0C0F98
:100D70007FF470AF084676E793EA0C0F04D14B027C
:100D80003FF44CAF08466EE730F0004C18BF31F02E
:100D9000004CCAD130F000427FF45CAF31F0004328
:100DA0007FF43CAF5FE700BF4FF0FF3C06E000BFC1
:100DB0004FF0010C02E000BF4FF0010C4DF804CDE4
:100DC0004FEA40024FEA41037FEA226C18BF7FEAF4
:100DD000236C11D001B052EA530C18BF90EA010FF6
:100DE00058BFB2EB030088BFC81738BF6FEAE17085
:100DF00018BF40F0010070477FEA226C02D15FEA21
:100E0000402C05D17FEA236CE4D15FEA412CE1D08C
:100E10005DF8040B704700BF844608466146FFE753
:100E20000FB5FFF7C9FF002848BF10F1000F0FBD35
:100E30004DF808EDFFF7F4FF0CBF012000205DF82E
:100E400008FB00BF4DF808EDFFF7EAFF34BF0120B3
:100E500000205DF808FB00BF4DF808EDFFF7E0FF4C
:100E600094BF012000205DF808FB00BF4DF808ED9D
:100E7000FFF7D2FF94BF012000205DF808FB00BF00
:100E80004DF808EDFFF7C8FF34BF012000205DF8E2
:100E900008FB00BF4FEA4002B2F1FE4F0FD34FF004
:100EA0009E03B3EB12620DD94FEA002343F00043D7
:100EB00010F0004F23FA02F018BF404270474FF085
:100EC0000000704712F1610F01D1420205D110F00C
:100ED000004008BF6FF0004070474FF000007047BF
:100EE00042000ED2B2F1FE4F0BD34FF09E03B3EB94
:100EF000126209D44FEA002343F0004323FA02F0C0
:100F000070474FF00000704712F1610F01D14202AB
:100F100002D14FF0FF3070474FF00000704700BF24
:100F20007BB972B90029BEBF00204FF0004106E036
:100F300008BF00281CBF6FF000414FF0FF3000F0E9
:100F4000A9B9ADF1080C6DE904CE002909DB002B2D
:100F50001ADB00F035F8DDF804E0DDE9022304B027
:100F60007047404261EB4101002B1BDB00F028F889
:100F7000DDF804E0DDE9022304B0404261EB410109
:100F8000524263EB43037047524263EB430300F06A
:100F900017F8DDF804E0DDE9022304B0404261EB1C
:100FA00041017047524263EB430300F009F8DDF85A
:100FB00004E0DDE9022304B0524263EB43037047CF
:100FC0002DE9F047089E0D4604468846002B4DD17A
:100FD0008A42944668D9B2FA82F252B101FA02F317
:100FE000C2F1200120FA01F10CFA02FC41EA0308E7
:100FF00094404FEA1C41B8FBF1F71FFA8CFE01FB4D
:10100000178807FB0EF0230C43EA084398420AD9DD
:101010001CEB030307F1FF3580F01E81984240F27C
:101020001B81023F63441B1AB3FBF1F001FB103339
:1010300000FB0EFEA4B244EA0344A6450AD91CEB09
:10104000040400F1FF3380F00981A64540F20681D7
:10105000644402380021A4EB0E0440EA07401EB1AC
:101060000023D440C6E90043BDE8F0878B4208D98D
:10107000002E00F0EE800021C6E900050846BDE81C
:10108000F087B3FA83F100294AD1AB4202D38242FE
:1010900000F2FC80841A65EB030301209846002EC1
:1010A000E2D0C6E90048DFE702B9FFDEB2FA82F219
:1010B000002A40F09180A1EB0C0001214FEA1C476F
:1010C0001FFA8CFEB0FBF7F307FB1300250C45EA73
:1010D00000450EFB03F0A84208D91CEB050503F1FF
:1010E000FF3802D2A84200F2CE8043462D1AB5FB4B
:1010F000F7F007FB10550EFB00FEA4B244EA0544CE
:10110000A64508D91CEB040400F1FF3502D2A64520
:1011100000F2B6802846A4EB0E0440EA03409EE7A6
:10112000C1F120078B4022FA07FC4CEA030C25FA98
:1011300007FA4FEA1C49BAFBF9F820FA07F309FB52
:1011400018AA8D401FFA8CFE1D4300FA01F308FB1C
:101150000EF02C0C44EA0A44A04202FA01F20BD928
:101160001CEB040408F1FF3A80F08880A04240F2B2
:101170008580A8F102086444241AB4FBF9F009FB45
:10118000104400FB0EFEADB245EA0444A64508D962
:101190001CEB040400F1FF356CD2A6456AD9023875
:1011A000644440EA0840A0FB0295A4EB0E04AC4264
:1011B000C846AE4656D353D0002E69D0B3EB0802D2
:1011C00064EB0E0422FA01F304FA07F71F43CC4044
:1011D000C6E90074002147E70CFA02FCC2F12001C5
:1011E00025FA01F34FEA1C4720FA01F195400D431F
:1011F000B3FBF7F107FB11331FFA8CFE280C40EA12
:10120000034001FB0EF3834204FA02F408D91CEBFD
:10121000000001F1FF382FD283422DD902396044FA
:10122000C01AB0FBF7F307FB1300ADB245EA004567
:1012300003FB0EF0A84208D91CEB050503F1FF38AB
:1012400016D2A84214D9023B6544281A43EA014148
:1012500038E73146304607E72F46E4E61846F9E618
:101260004B45A9D2B9EB020865EB0C0E0138A3E798
:101270004346EAE7284694E74146D1E7D0467BE774
:101280006444023847E7023B65442FE7084606E717
:101290003146E9E6704700BF844641EA000313F097
:1012A000030349D1403A23D30B6803604B68436082
:1012B0008B688360CB68C3600B6903614B694361D2
:1012C0008B698361CB69C3610B6A03624B6A4362BA
:1012D0008B6A8362CB6AC3620B6B03634B6B4363A2
:1012E0008B6B8363CB6BC36340304031403ADBD2BE
:1012F00030320BD30B6803604B6843608B688360AC
:10130000CB68C36010301031103AF3D20C3205D3E1
:1013100051F8043B40F8043B043AF9D2043208D0B7
:10132000D2071CBF11F8013B00F8013B01D30B8829
:1013300003806046704700BF082A13D38B07B1D0E3
:1013400010F00303AED0C3F10403D21ADB071CBFB5
:1013500011F8013B00F8013BA4D331F8023B20F81F
:10136000023B9FE7043AD9D3013A11F8013B00F858
:10137000013BF9D20B7803704B7843708B78837004
:10138000604670474FF0FF3C06E000BF4FF0010C95
:1013900002E000BF4FF0010C4DF804CD4FEA410CC4
:1013A0007FEA6C5C4FEA430C18BF7FEA6C5C1BD091
:1013B00001B050EA410C0CBF52EA430C91EA030F12
:1013C00002BF90EA020F0020704710F1000F91EA6F
:1013D000030F58BF994208BF90422CBFD8176FEA3D
:1013E000E37040F0010070474FEA410C7FEA6C5C0B
:1013F00002D150EA013C07D14FEA430C7FEA6C5C12
:10140000D6D152EA033CD3D05DF8040B704700BF3D
:101410008446104662468C461946634600E000BF8B
:1014200001B5FFF7B7FF002848BF10F1000F01BD5D
:101430004DF808EDFFF7F4FF0CBF012000205DF828
:1014400008FB00BF4DF808EDFFF7EAFF34BF0120AD
:1014500000205DF808FB00BF4DF808EDFFF7E0FF46
:1014600094BF012000205DF808FB00BF4DF808ED97
:10147000FFF7CEFF94BF012000205DF808FB00BFFE
:101480004DF808EDFFF7C4FF34BF012000205DF8E0
:1014900008FB00BF4FEA410C7FEA6C5C02D150EAC6
:1014A000013C0AD14FEA430C7FEA6C5C02D152EA5C
:1014B000033C02D14FF0000070474FF0010070472D
:1014C0004FEA410212F5001215D211D56FF478736C
:1014D000B3EB625212D94FEAC12343F0004343EA0F
:1014E000505311F0004F23FA02F018BF40427047EA
:1014F0004FF00000704750EA013005D111F0004074
:1015000008BF6FF0004070474FF00000704700BF09
:1015100053B94AB9002908BF00281CBF4FF0FF315A
:101520004FF0FF30FFF7B6BEADF1080C6DE904CE09
:10153000FFF746FDDDF804E0DDE9022304B0704763
:1015400000B585B08DF80E10FF23009301230DF137
:101550000F020DF10E0103F060FD10B1FF238DF8B5
:101560000F309DF80F0005B05DF804FBF8B5044698
:101570000D460B4E00220221304603F03EF9094F82
:1015800021463846FFF7DCFF044629463846FFF778
:10159000D7FF01220221304603F02FF92046F8BD83
:1015A000000C0140380A002070B504460B4D0022A3
:1015B0000221284603F021F9094E21463046FFF763
:1015C000BFFFFF213046FFF7BBFF04460122022187
:1015D000284603F012F9204670BD00BF000C014000
:1015E000380A0020F8B504460E46154600220221AE
:1015F0000C4803F002F921460B48FFF7A1FF07460C
:10160000002406E0FF210848FFF79AFF3055013417
:10161000E4B2AC42F6D301220221024803F0EDF815
:101620003846F8BD000C0140380A0020F8B50546E0
:101630000C461646002202210C4803F0DEF829462B
:101640000B48FFF77DFF0746002506E014F8011B55
:101650000748FFF775FF0135EDB2B542F6D3012219
:101660000221024803F0C9F83846F8BD000C0140D9
:10167000380A002000B583B0124B93E803000090B5
:101680008DF80410052269463020FFF7CFFF0522B0
:1016900069461020FFF7A6FF0023042B09D803F1A9
:1016A00008026A4412F8082CA52A02D10133DBB2E1
:1016B000F3E7052B03D1002003B05DF804FB012004
:1016C000FAE700BF80B9000838B505460720FFF7E4
:1016D0006BFF044601462720FFF748FF14F0400F38
:1016E00001D1012038BD202229466120FFF77AFF71
:1016F000FF21E220FFF73AFF0020F3E710B5164C78
:1017000000220121204603F078F80F212020FFF766
:101710002DFF01212120FFF729FF01212220FFF7C2
:1017200025FF28212520FFF721FF0F212620FFF785
:101730001DFF20213120FFF719FF052207492A202C
:10174000FFF774FF01221146204603F056F80120EE
:1017500002F0C8FE10BD00BF000C014088B90008AF
:1017600010B5264B1B78012B14D0022B23D0032B52
:1017700032D0234C01220821204603F03EF80122FA
:101780001021204603F039F801222021204603F0E1
:1017900034F810BD1A4C01220821204603F02DF820
:1017A00000221021204603F028F8002220212046A4
:1017B00003F023F8EDE7124C00220821204603F045
:1017C0001CF801221021204603F017F800222021E6
:1017D000204603F012F8DCE7094C002208212046DD
:1017E00003F00BF800221021204603F006F8012236
:1017F0002021204603F001F8CBE700BF140A0020A7
:10180000000C014008B50548FFF75EFF0028FAD13B
:10181000024B002283F8202008BD00BF140A0020DC
:101820000378013B032B0AD8DFE803F002151A1FE7
:10183000124B1A880A3A1A805A880A3A5A80104B70
:101840001B680E4A11885963518899639188D9633E
:10185000D2881A647047094A93880A339380EEE766
:10186000064AD3880A3BD380E9E7044B40F6C4120A
:101870001A805A809A80DA80E1E700BF00000020D9
:10188000940A002008B5FFF7BDFFFFF769FF024883
:10189000FFF7C6FF08BD00BF140A002010B502F014
:1018A0009BFD01F07FFF0E4C0021204603F066FEF9
:1018B0000421204603F062FE0821204603F05EFE6C
:1018C0000C21204603F05AFE01F06CFF0028FBD1EA
:1018D000FFF7D0FE0028FBD1FFF710FF10BD00BFBF
:1018E000940A00202DE9F04389B000240494059463
:1018F000069407943A4B9A6942F010029A619A69E9
:1019000002F010020092009A9A6942F020029A6155
:101910009A6902F020020192019A9A6942F0040247
:101920009A619A6902F004020292029A9A6942F05C
:1019300008029A619B6903F008030393039BDFF895
:10194000A49022464FF40051484602F056FF264E1E
:10195000224640F23931304602F04FFF0122022187
:10196000304602F04AFFDFF8848022464FF40041FF
:10197000404602F042FF4FF40053049301250595C1
:1019800006940227079704A9484602F01DFE10237B
:101990000493059406950DEB0301404602F014FEF6
:1019A0000323049305950695079304A9304602F096
:1019B0000BFE4FF40043049305950694079704A982
:1019C000404602F001FE4FF44E73049305950694D1
:1019D000079704A9304602F0F7FD09B0BDE8F0838F
:1019E0000010024000100140000C014000080140BE
:1019F00072B6FEE700B591B02822002106A803F0D8
:101A000063FF002301930293039304930593012240
:101A100006924FF4803307930A9202220D920E939E
:101A20004FF4E0130F9306A802F004FF80B90F23D0
:101A3000019302210291002303934FF480620492E8
:101A4000059301A803F036F920B911B05DF804FB45
:101A5000FFF7CEFFFFF7CCFF08B502F01FFDFFF741
:101A6000C9FFFFF73FFF00F009F800F02FF900F081
:101A7000A5F9FFF713FFFFF705FFFCE708B50E48D0
:101A80000E4B03604FF48273436000238360C36096
:101A9000036143614FF4007282611822C2610362E4
:101AA000436283620A23C36203F05CFA00B908BD93
:101AB000FFF79EFFFBE700BF380A0020003001401F
:101AC00010B586B000230293039304930593026834
:101AD000164B9A4201D006B010BD03F560439A69D7
:101AE00042F480529A619A6902F480520092009AFC
:101AF0009A6942F004029A619B6903F0040301931E
:101B0000019BA02302930223039303230593084C14
:101B100002A9204602F058FD4023029300230393BC
:101B2000049302A9204602F04FFDD4E700300140A3
:101B30000008014082B00E4B9A6942F001029A619E
:101B40009A6902F001020092009ADA6942F080522A
:101B5000DA61DB6903F080530193019B054A536806
:101B600023F0E06343F00073536002B0704700BF9E
:101B70000010024000000140FEE7FEE7FEE7FEE73E
:101B8000FEE770477047704708B502F099FC08BD42
:101B90000120704708B503F039FE162303604FF0AB
:101BA000FF3008BD08B54FF0FF31FFF7F3FFFEE748
:101BB00070B50C461646002506E0AFF300802146BE
:101BC00001F8010B01350C46B542F6DB304670BD1D
:101BD00070B50C461646002504E014F8010BAFF36F
:101BE00000800135B542F8DB304670BD4FF0FF3064
:101BF00070474FF400534B6000207047012070473E
:101C00000020704710B503460C4A0D490D48006886
:101C100040B10C4800680344521A934206D8094A5E
:101C2000136010BD0748084C0460F2E703F0EEFDB6
:101C30000C2303604FF0FF30F3E700BF005000209B
:101C400000040000900A0020800B00207047000074
:101C50000268094B9A4200D0704782B003F5644392
:101C60009A6942F400629A619B6903F400630193EC
:101C7000019B02B0704700BF002C014000B587B047
:101C80000023029303930493059302680D4B9A4239
:101C900002D007B05DF804FB03F564439A6942F093
:101CA00004029A619B6903F004030193019B4FF4C2
:101CB0007063029302230393059302A9024802F082
:101CC00083FCE6E7002C01400008014010B592B00B
:101CD00000241094119409940A940B940C940D947C
:101CE0000E940F942022214601A803F0EDFD314807
:101CF000314B036047234360846041F28833C36003
:101D000004614461846103F063FB00283CD100233B
:101D10001093119310A9274803F09EFC002836D198
:101D20006023099300220A920B920C920D920E925C
:101D30000F9209A91F4803F0A9FB58BB042209A967
:101D40001C4803F0A3FB40BB082209A9194803F073
:101D50009DFB28BB0C2209A9164803F097FB10BB7A
:101D60000023019302930393049305934FF40052CD
:101D70000692089301A90F4803F0A4FCB0B90D48DE
:101D8000FFF77CFF12B010BDFFF732FEBFE7FFF791
:101D90002FFEC5E7FFF72CFED0E7FFF729FED3E7BC
:101DA000FFF726FED6E7FFF723FED9E7FFF720FE71
:101DB000E5E700BF940A0020002C014008B50A485E
:101DC0000A4B03604FF4E133436000238360C36038
:101DD00003610C2242618361C36103F0E7FC00B937
:101DE00008BDFFF705FEFBE7DC0A002000380140D4
:101DF00010B586B000230293039304930593026801
:101E00001A4B9A4201D006B010BD03F558439A69A7
:101E100042F480429A619A6902F480420092009AE8
:101E20009A6942F008029A619B6903F008030193E2
:101E3000019B4023029302230393032305930C4C3D
:101E400002A9204602F0C0FB8023029300230393E3
:101E5000049302A9204602F0B7FB064A536843F0F8
:101E6000E06343F004035360CDE700BF0038014056
:101E7000000C0140000001400C480D490D4A0023B0
:101E800002E0D458C4500433C4188C42F9D30A4A2F
:101E90000A4C002301E013600432A242FBD3FFF797
:101EA000D5FE03F0B9FCFFF7D7FD70470000002016
:101EB000F8090020E4CA0008F80900207C0B002083
:101EC000FEE7000010B50D4C01224FF400712046D2
:101ED00002F093FC01224FF48071204602F08DFC49
:101EE00000224FF40071204602F087FC00224FF4DC
:101EF0008071204602F081FC10BD00BF000C014043
:101F000010B50A4C00224FF40071204602F075FC17
:101F100001224FF48071204602F06FFC01224FF441
:101F20000071204602F069FC10BD00BF000C0140AA
:101F300070B50546002418E001224FF400711548E1
:101F400002F05BFC134E01224FF48071304602F028
:101F500054FC00224FF48071304602F04EFC072CF6
:101F60000FD06D00EDB20134E4B2072C10D815F09B
:101F7000800FE1D100224FF40071064802F03DFCD1
:101F8000E0E701224FF40071304602F036FCE8E74A
:101F900070BD00BF000C014010B50E4C01224FF483
:101FA0000071204602F029FC01224FF48071204686
:101FB00002F023FC4FF40071204602F017FC0446A7
:101FC00000B1012400224FF48071024802F015FC98
:101FD000204610BD000C014010B50D4C00224FF4FE
:101FE0000071204602F009FC01224FF48071204666
:101FF00002F003FC00224FF48071204602F0FDFB4A
:1020000001224FF40071204602F0F7FB10BD00BF23
:10201000000C014010B50A4C01224FF4007120461B
:1020200002F0EBFB01224FF48071204602F0E5FB49
:1020300000224FF48071204602F0DFFB10BD00BF8C
:10204000000C0140F8B507460024254607E00022B1
:102050004FF48071104802F0D0FB0135EDB2072D2E
:1020600012D86400E4B20C4E01224FF48071304665
:1020700002F0C3FB4FF40071304602F0B7FB0028BA
:10208000E5D00134E4B2E2E71FB9FFF7C3FF204611
:10209000F8BDFFF7A1FFFAE7000C014000B585B0DD
:1020A0004FF4407300930323039311230193694674
:1020B000034802F089FAFFF723FF05B05DF804FB3F
:1020C000000C0140F0B583B007462C4B586801ABBB
:1020D00004220D21007802F0C6F800284BD10446F6
:1020E0009DF80420D21002F01C029DF80710C1F3E5
:1020F00001131A438DF800209DF80520D21002F03C
:102100001C02C1F381031A438DF801209DF80630AB
:10211000DB1003F01C0301F003010B438DF80230C8
:1021200018E007EB8405164B47F8243004E0154906
:102130002868FEF7E9FC286006F108030DEB0302AE
:1021400012F8083C013BDBB202F8083C002BEED150
:102150000134E4B2022C0BD8264604F108036B4488
:1021600013F8083C002BDCD1002347F82430EFE7BC
:10217000002003B0F0BD0720FBE700BF18000020DF
:102180007B14AE3E1D5A843F2DE9F04385B0814655
:10219000884601A8FFF796FF00273C460DE021493D
:1021A0003046FEF74FFE20B91F493046FEF768FE65
:1021B00010B10123A3401F430134022C2EDCA500E3
:1021C00059F8240058F82430C01A0028B8BF4042FB
:1021D000FEF746FC4FF05E51FEF796FC064605F111
:1021E00010030DEB030555F80C5C00212846FEF7A3
:1021F0001FFE0028D3D129463046FEF739FD4FF0A7
:102200007E51FEF777FB20F000400849FEF738FECC
:102210000028D1D00123A3401F43CDE7384605B0A5
:10222000BDE8F0839A99993E3333733F295C0F3EA2
:102230002DE9F04182B007468846374B586801AB1C
:1022400003220D21007802F00EF800285FD19DF8DE
:10225000043003F01F038DF804309DF8053003F0BF
:102260001F038DF805309DF8063003F01F038DF82D
:1022700006300026344626E02849FEF745FC04F1E6
:1022800008030DEB030212F8043C013BDBB202F839
:10229000043C002BF0D101462846FEF7E9FC4FF044
:1022A0007E51FEF727FB20F000401D49FEF7E8FDB8
:1022B00040B10123A3401E4304E01A48DFE7012395
:1022C000A3401E430134022C22DC57F8240058F8A6
:1022D0002430C01A0028B8BF4042FEF7C1FB4FF0BF
:1022E0005E51FEF711FC054604F108036B4413F838
:1022F000043C002BE1D10C49FEF7A4FD0028DED1FF
:102300000A492846FEF7BCFD0028DBD0D7E70726A0
:10231000304602B0BDE8F0811800002054E3853F4C
:10232000295C0F3E0000C841000020410000D2425D
:1023300000B583B0234B93F82430CBB1A0B1022376
:102340008DF807301F4B586819680DF107030122FB
:10235000C97B007801F056FF48BB9DF80720194B58
:102360005A7403B05DF804FB00238DF80730E9E7E9
:10237000144B9B7AF3B110B1124B5B7CEBB990B16B
:1023800001238DF807300F4B586819680DF10703CA
:102390000122C97B007801F035FF80B99DF8072044
:1023A000084B5A74DDE700238DF80730EBE74FF058
:1023B000FF30D6E74FF0FF30D3E70020D1E74FF0F2
:1023C000FF30CEE718000020F0B589B005460C4676
:1023D000164601238DF8143000238DF81530854BF7
:1023E0005868196805AB0222897C007801F00AFF61
:1023F000002840F0CE81C82002F074F800238DF848
:1024000014307C4B5868196805AB0122C97B0078F1
:1024100001F0F8FE002840F0BF81764B586819683B
:1024200005AB01224979007801F0ECFE002840F06C
:10243000B681704B5868196805AB0122897C007819
:1024400001F0E0FE002840F0AD816A4B5868196841
:1024500005AB0122C97D007801F0D4FE002840F0D0
:10246000A481644B5868196805AB0122097900788A
:1024700001F0C8FE002840F09B810C238DF8143039
:102480005C4B5868196805AB01220979007801F0A6
:10249000B9FE002840F08F810F2002F023F8554B41
:1024A0009A6A527A8DF814205868196805AB01228F
:1024B0008978007801F0A6FE002840F07F814D4B1E
:1024C0009A6A127A8DF814205868196805AB0122AF
:1024D0004978007801F096FE002840F07281002EC5
:1024E00079D0444B9B6A9B7A63F01F038DF81430BC
:1024F000404B5868196805AB01228979007801F0D2
:1025000081FE002840F06081002E6AD0394B9B6A22
:10251000DB7A63F01F038DF81430364B5868196866
:1025200005AB0122C979007801F06CFE002840F06B
:102530004E81002E59D140238DF814302D4B586810
:10254000196805AB01220979007801F05BFE0028CB
:1025500040F0408178238DF81430264B5868196874
:1025600005AB01224979007801F04CFE002840F0CB
:102570003481322001F0B6FF00238DF814301D4B5A
:102580005868196805AB01224979007801F03AFED4
:10259000002840F02581174B5868196805AB0222C6
:1025A000897A007801F05FFE0646002840F01B8122
:1025B0009DF814309DF8157047EA03270E4BA3FBD6
:1025C0000737C7F3C7070023AB606B602B60A360BE
:1025D000636023605CE0074B9B6A9B7A8DF8143044
:1025E00086E718238DF8143097E7C82001F07AFFAA
:1025F000A1E700BF18000020ABAAAAAA9DF81430DA
:102600009DF8151041EA032109B2ADF804109DF8B8
:1026100016309DF8172042EA032212B2ADF80620C8
:102620009DF818009DF8193043EA00231BB2ADF85D
:10263000083020680144216061680A446260A26831
:102640001344A3609DF81A309DF81B1041EA032142
:1026500009B2ADF80C109DF81C309DF81D2042EA1F
:10266000032212B2ADF80E209DF81E009DF81F3017
:1026700043EA00231BB2ADF81030286801442960FA
:1026800069680A446A60AA681344AB600136F6B20E
:10269000BE420ED2554B5868196805AB0C22C97A58
:1026A000007801F0E0FD0028A8D04FF0FF3009B01D
:1026B000F0BD29688322002308040914FEF730FCCA
:1026C00000263A463346FEF72BFC286069688322D1
:1026D000002308040914FEF723FC3A463346FEF7AC
:1026E0001FFC6860A9688322002308040914FEF710
:1026F00017FC3A463346FEF713FCA8602068031423
:1027000000041946B3422DDBC00A3A46334640EA7C
:102710004150C912FEF704FC2060606803140004F5
:102720001946002B24DBC00A3A46334640EA4150A2
:10273000C912FEF7F5FB6060A06803140004194697
:10274000002B1BDBC00A3A46334640EA4150C9120F
:10275000FEF7E6FBA060002816DDA0F58030A06043
:102760000020A4E740F2FF72801843F10001CBE79C
:1027700040F2FF72801843F10001D4E740F2FF728B
:10278000801843F10001DDE700F58030A0600020F3
:102790008DE74FF0FF308AE74FF0FF3087E74FF0CB
:1027A000FF3084E74FF0FF3081E74FF0FF307EE7E6
:1027B0004FF0FF307BE74FF0FF3078E74FF0FF300E
:1027C00075E74FF0FF3072E74FF0FF306FE74FF0E3
:1027D000FF306CE74FF0FF3069E74FF0FF3066E7FE
:1027E0004FF0FF3063E74FF0FF3060E71800002044
:1027F0007C4B9B7A002B00F0D48000B583B0002383
:102800008DF80730774B586819680DF107030122DE
:10281000C97B007801F0F6FC002840F0C580714BC0
:10282000586819680DF1070301224979007801F011
:10283000E9FC002840F0BB806A4B586819680DF12C
:10284000070301220979007801F0DCFC002840F040
:10285000B180644B93F82430002B52D00C238DF8B8
:102860000730604B586819680DF107030122097998
:10287000007801F0C7FC002840F09F80322001F072
:1028800031FEC0238DF80730564B9B7A13F0010FB1
:1028900002D0E0238DF80730524B586819680DF1CB
:1028A000070301220979007801F0ACFC002840F010
:1028B00087804C4B5B7C03B302238DF80730494B78
:1028C000586819680DF107030122C97B007801F0EF
:1028D00099FC002877D100238DF80730414B5868C8
:1028E00019680DF1070301224979007801F08AFC8B
:1028F00000286BD103B05DF804FB00238DF807308E
:10290000DDE704238DF80730364B586819680DF160
:10291000070301220979007801F074FC002858D1DE
:10292000304B9B7C23B92F4B9B7A13F0010F30D196
:1029300040238DF807302B4B586819680DF10703B9
:1029400001220979007801F05DFC002844D1322091
:1029500001F0C8FD234B5B7CFBB101238DF80730F0
:10296000204B586819680DF107030122C97B0078D4
:1029700001F048FC98BB1B4B586853F8101B012210
:102980004979007801F03EFC0028B3D04FF0FF30C9
:10299000B0E760238DF80730CDE700238DF80730CE
:1029A000DEE74FF0FF3070474FF0FF30A2E74FF007
:1029B000FF309FE74FF0FF309CE74FF0FF3099E783
:1029C0004FF0FF3096E74FF0FF3093E74FF0FF30C6
:1029D00090E74FF0FF308DE74FF0FF308AE74FF080
:1029E000FF3087E7180000200D4B1B7A032B13D80C
:1029F000DFE803F002060A0EFA2303800020704786
:102A00004FF4FA730380F9E74FF47A730380F5E724
:102A10004FF4FA630380F1E700230380EEE700BF81
:102A200018000020244B9B7A002B3CD000B583B0CB
:102A3000B0F57A7F33D00BD8FA2813D0B0F5FA7FEF
:102A400003D108238DF807300FE04FF0FF3023E06B
:102A5000B0F5FA6F03D118238DF8073005E04FF079
:102A6000FF3019E000238DF80730134B1B7A9DF8D7
:102A70000720B3EBD20F19D00F4B586819680DF12E
:102A8000070301228979007801F0BCFB80B99DF829
:102A90000730DB08084A137203B05DF804FB10230B
:102AA0008DF80730E1E74FF0FF3070470020F3E783
:102AB0004FF0FF30F0E700BF180000200F4B5B7AAB
:102AC000032B16D8DFE803F0020C0F120223037069
:102AD0000A4BDB7C83B103785B00037000207047F6
:102AE00004230370F4E708230370F1E71023037055
:102AF000EEE74FF0FF3070470020704718000020CD
:102B0000234B9B7A002B35D000B583B002380E28BA
:102B100033D8DFE800F00832233232322732323243
:102B2000323232322B0000238DF80730184B5B7A9B
:102B30009DF80720B3EBD20F24D0154B58681968C5
:102B40000DF107030122C979007801F05BFBD8B9C8
:102B50009DF80730DB080E4A537210E008238DF809
:102B60000730E3E710238DF80730DFE718238DF8EF
:102B70000730DBE74FF0FF3070474FF0FF3003B016
:102B80005DF804FB0020FAE74FF0FF30F7E700BFE5
:102B9000180000200F4BDB7A013B052B17D8DFE82C
:102BA00003F003070A0D1013BC23038000207047B5
:102BB00062230380FAE72A230380F7E714230380C4
:102BC000F4E70A230380F1E705230380EEE70023FF
:102BD0000380EBE718000020234B9B7A002B3AD0B0
:102BE00000B583B0BB281AD901238DF807301E4BDE
:102BF000DA7A9DF807309A4230D01B4B5868196832
:102C00000DF1070301228978007801F0FBFA38BB47
:102C10009DF80720144BDA7203B05DF804FB6128BD
:102C200003D902238DF80730E1E7292803D90323CC
:102C30008DF80730DBE7132803D904238DF807301C
:102C4000D5E7092803D905238DF80730CFE70623F8
:102C50008DF80730CBE74FF0FF3070470020DBE7FF
:102C60004FF0FF30D8E700BF18000020054B93F865
:102C7000243023B9034BDB890380002070474FF0D9
:102C8000FF307047180000200D4B1B7A032B13D820
:102C9000DFE803F002060A0E0A4B036000207047CB
:102CA000094B036000207047084B03600020704709
:102CB000074B0360002070474FF0FF30704700BFA4
:102CC0001800002000000343000083423333034216
:102CD00033338341114B5B7A032B1AD8DFE803F0BF
:102CE000020D11154FF4804303800C4BDB7C9BB12C
:102CF00003885B0803800020704741F69C730380C3
:102D0000F3E74FF480530380EFE74FF40063038051
:102D1000EBE74FF0FF3070470020704718000020AD
:102D2000024B1B7C03700020704700BF180000207E
:102D300070B5174B93F824302BBB00F0FE04144BF6
:102D40009B7A13B3124A167C23401374A3420BD010
:102D50004FF0FF3514B90E4B1B7D3BB10120FFF73F
:102D6000E7FA3CB9284670BD0025F3E70020FFF7DD
:102D7000DFFAF6E7FFF73CFD0028F3D0044B1E74A2
:102D80004FF0FF35EEE70025ECE74FF0FF35E9E7C0
:102D900018000020584B9B7C834200F09C8010B5AB
:102DA00082B00446002844D0534B586819680DF18E
:102DB000070301220979007801F055FA002840F054
:102DC0008C809DF8073023F020038DF807304A4BA4
:102DD000586819680DF1070301220979007801F09C
:102DE00011FA00287CD1032001F07CFB02238DF82E
:102DF0000730414B93F8223013B182238DF807300E
:102E00003D4B93F823302BB19DF8073043F030034E
:102E10008DF80730384B586819680DF10703012207
:102E2000097D007801F0EEF9002844D04FF0FF3022
:102E300044E0314B586819680DF107030122097904
:102E4000007801F010FA00284DD12B4B9B7A13F03B
:102E5000010F35D09DF8073043F020038DF807307F
:102E6000254B586819680DF107030122097900788C
:102E700001F0C8F9002839D1032001F033FB1E4BC3
:102E800093F822301BB380238DF807301A4B93F848
:102E900023302BB19DF8073043F030038DF8073015
:102EA000154B586819680DF107030122097D007858
:102EB00001F0A8F9E8B9104B9C74002002B010BDD5
:102EC0009DF8073023F020038DF80730C8E7002372
:102ED0008DF80730DAE7002070474FF0FF30EDE75C
:102EE0004FF0FF30EAE74FF0FF30E7E74FF0FF30F9
:102EF000E4E74FF0FF30E1E7180000201B4B93F8A8
:102F0000233083422DD010B582B0044628B330233D
:102F10008DF80730154B9B7C2BB19DF8073043F0A3
:102F200002038DF80730114B93F822302BB19DF836
:102F3000073063F07F038DF807300C4B5868196831
:102F40000DF107030122097D007801F05BF950B90A
:102F5000064B83F8234002B010BD00238DF80730E4
:102F6000D8E7002070474FF0FF30F4E7180000204A
:102F700028285FD810B582B00446B8B90020FFF702
:102F8000BDFF00238DF8043007238DF805302E4B4C
:102F90005868196801AB0222897C007801F032F987
:102FA00000284AD1284B187502B010BD0120FFF748
:102FB000A5FF20238DF80430012C26D0052C2BD919
:102FC000142C30D802238DF805300A20FFF704FEB8
:102FD0009DF805309B0143F007038DF805301A4B2F
:102FE0005868196801AB0222897C007801F00AF95F
:102FF00030BB154B08229A7200241C7301221A75EB
:103000002046FFF795FE2046CEE700238DF80530D9
:103010000520FFF7E1FDDBE701238DF805300520F2
:10302000FFF7DAFDD4E703238DF805301420FFF70E
:10303000D3FDCDE74FF0FF3070474FF0FF30B3E7DF
:103040004FF0FF30B0E700BF18000020264B9B7AFE
:10305000002B40D010B582B00446234B93F82430A7
:10306000002B3BD1204B1B7D33B1431E9BB2272B42
:103070000AD90020FFF77CFF032C0AD9B4F57A7F28
:1030800008D94FF47A7405E0C0B2FFF771FF002051
:103090001FE004244FF47A7090FBF4F4013C8DF8A7
:1030A0000740114B586819680DF107030122497850
:1030B000007801F0A7F8A0B99DF80700431C4FF471
:1030C0007A7090FBF3F0084BD8814008FFF784FD3D
:1030D000002002B010BD4FF0FF3070474FF0FF30BE
:1030E000F7E74FF0FF30F4E71800002010B582B08A
:1030F000044610F0700F50D001238DF80730334B89
:10310000586819680DF107030122897C007801F0E5
:1031100079F800284AD19DF8073003F0BF032B4A05
:10312000137300238DF8073014F0400F02D10423ED
:103130008DF8073014F0200F05D19DF8073043F0CB
:1031400002038DF8073014F0100F05D19DF80730F9
:1031500043F001038DF8073014F0080F05D19DF8F6
:10316000073043F038038DF80730184B586819685A
:103170000DF107030122C97C007801F043F8D8B9AA
:103180000CB1082C1ED1114B9C7200241C753220EE
:1031900001F0A8F9204602B010BD18B100238DF847
:1031A0000730ACE740238DF80730A8E7074B002233
:1031B0009A724FF0FF30EEE7044B00229A724FF004
:1031C000FF30E8E70020FFF799FEDCE71800002059
:1031D00010B582B080238DF80030674B58681968AD
:1031E0006B460122897C007801F00CF8002840F041
:1031F000A480642001F076F900238DF800305E4B46
:10320000586819686B460122897C007800F0FAFF43
:10321000002840F09580584B586819686B46062284
:10322000897D007801F01FF8002840F08C809DF81F
:103230000510890001F004019DF803305B0003F0E4
:10324000020319439DF9013003F00103194352D0E1
:10325000012946D0022948D1474B0022DA74464B57
:10326000FF229A721A725A72DA724FF6FF71D9817E
:103270001A749A7401221A7383F82220002283F8A8
:1032800023205A751A75C3F81620C3F81A20C3F8FC
:103290001E2083F8242083F82520DA844FF4FA6076
:1032A000FFF7C0FB002854D10220FFF729FC0028BB
:1032B00052D12A20FFF790FC002850D13220FFF78E
:1032C000C5FE00284ED1FFF733FD00284DD1FFF792
:1032D00061FD044600284BD1FFF708FF204602B0ED
:1032E00010BD254B0122DA74B9E7244802F03EFBF9
:1032F0004FF0FF34F2E7204B586819686B46012203
:10330000C978007800F0AFFF00BB9DF8003013F0E3
:103310000F0305D0042B09D0174B0022DA749EE767
:10332000174802F085FB4FF0FF34D7E7154802F04D
:103330007FFB114B0122DA7491E74FF0FF34CDE7A8
:103340004FF0FF34CAE74FF0FF34C7E74FF0FF34C8
:10335000C4E74FF0FF34C1E74FF0FF34BEE74FF052
:10336000FF34BBE74FF0FF34B8E74FF0FF34B5E769
:103370004FF0FF34B2E700BF18000020A8B90008E2
:10338000D0B900081CBA00083AB370B582B00C4638
:103390001646194B9B7A1BB3030A8DF80430C0B252
:1033A0008DF805000844144B5D686B8998421ADC5F
:1033B000114B196801AB0222097E287800F022FF28
:1033C000A0B90D4B586819683346E2B2497D0078C0
:1033D00000F018FF68B902B070BD4FF0FF307047C1
:1033E0004FF0FF30F7E74FF0FF30F4E74FF0FF30DA
:1033F000F1E74FF0FF30EEE7180000203AB370B568
:1034000082B00C461646194B9B7A1BB3030A8DF803
:103410000430C0B28DF805000844144B5D686B8918
:1034200098421ADC114B196801AB0222097E2878F8
:1034300000F0E8FEA0B90D4B586819683346E2B2B7
:10344000497D007800F00FFF68B902B070BD4FF001
:10345000FF3070474FF0FF30F7E74FF0FF30F4E7F1
:103460004FF0FF30F1E74FF0FF30EEE7180000209B
:103470002DE9F04F87B09A46294B93F82530002B61
:103480003CD107468846914600293AD00024BC42E8
:103490001BD23E1B102EA8BF1026B5B208EB040BA2
:1034A0005A4629462046FFF76FFF68BB02AA294605
:1034B0002046FFF7A3FF50BB2A4602A9584602F058
:1034C000CFF938BB2C44A4B2E1E74FEA19238DF8B9
:1034D00004308DF80590124B5868196801AB022230
:1034E000897E007800F08EFEB8B90D4B012283F87A
:1034F0002520A3F826A007B0BDE8F08F4FF0FF30DD
:10350000F9E74FF0FF30F6E74FF0FF30F3E74FF009
:10351000FF30F0E76FF00100EDE74FF0FF30EAE732
:1035200018000020234B93F8243083423CD030B560
:1035300083B018B31F4B93F82530002B36D00020F2
:10354000FEF7F6FE0020FFF725FC1A4DE88CFFF78A
:103550007DFD00248DF8074068680DF10703012206
:103560002321007800F04EFE012085F82400FEF7AC
:10357000DFFEFFF73DF9204603B030BD0020FEF727
:10358000D7FE0C4D2B7C8DF8073068680DF10703D2
:1035900001222321007800F035FE002485F8244024
:1035A000FFF726F92046E7E7002070474FF0FF308D
:1035B000E2E700BF180000202DE9F04188B0054681
:1035C0000E463D4B93F82470FFB901A8FFF70CFAA3
:1035D0000DF10700FFF772FA6846FFF7DBFA0DF10D
:1035E0000200FFF743FB344B93F80A800DF106000D
:1035F000FFF796FB0024012C0CDC00223146284604
:10360000FEF7E2FE30B10134F5E70020FFF78AFF54
:103610000127DAE7022C1FD00024012C07DC01224D
:1036200002A905A8FEF7D0FE08B10134F5E7022C87
:1036300014D002A93046FEF7A7FDC6B205A9284658
:10364000FEF7F6FD10F0FF0F04D000243EB944F061
:10365000020404E00124F9E7002400E00024164BF2
:10366000FF221A725A72DA724FF6FF71D9819A727A
:103670001A7401221A73BDF80400FFF7D3F99DF8FC
:103680000700FFF73DFABDF80000FFF7A5FABDF807
:103690000200FFF7DBFC4046FFF728FD9DF806001F
:1036A000FFF746FB1FB9204608B0BDE8F0810120B6
:1036B000FFF738FFF7E700BF1800002010B588B00B
:1036C00002A905A8FFF778FF032802D0012008B05F
:1036D00010BD01A8FFF7D8FA019C0598FDF7C0F9C5
:1036E0002146FDF711FAFDF7D5FB05900698FDF789
:1036F000B7F92146FDF708FAFDF7CCFB06900798CD
:10370000FDF7AEF92146FDF7FFF9FDF7C3FB079082
:1037100005A800F04BF90DF10200FFF7DBFABDF848
:103720000220029B02FB03F30293039B02FB03F3C1
:103730000393049B02FB03F3049302A800F0BEF979
:103740000020C4E790F90030002B01DD0020704715
:103750000FDB90F90130002B01DD012070470ADBFF
:1037600090F90230002B08DC01DB072070470620AF
:10377000704704207047052070470220704738B515
:103780000546FFF7DFFF0446E81CFFF7DBFF44EACE
:10379000C00424B2A81DFFF7D5FF44EA801080B210
:1037A00038BD000008B5FEF779FCFFF711FDC0BB7E
:1037B0007820FFF79BFC10F0FF0F01D0012031E0D3
:1037C0007820FFF7B5FA10F0FF0F2CD16420FFF737
:1037D0003DFC10F0FF0F28D100F036F810F0FF0F7D
:1037E00025D11848FFF7CBFF00F03AF810F0FF0F93
:1037F0001FD140F2731000F0F9FB10F0FF0F1AD147
:10380000642000F0D5F910F0FF0F16D1FFF756FF36
:10381000A8B90120FFF786FE10F0FF0002D00920B2
:1038200000E00A2008BD0220FCE70320FAE704209C
:10383000F8E70520F6E70620F4E70720F2E708207E
:10384000F0E700BF0C00002008B5C8234FF48062E9
:10385000024940F6F630FFF70BFE08BDC4BA000877
:1038600010B586B004464C4B1B68ADF80C301B0CF1
:103870008DF80E30494B1B68ADF808301B0C8DF8E5
:103880000A30474B1B68ADF804301B0C8DF806302E
:10389000444B1B68ADF800301B0C8DF8023000F073
:1038A000030101F118030DEB030111F80C3C8DF835
:1038B0001430C0F3C10202F118030DEB030212F839
:1038C0000C3C8DF81530C0F3811318336B4413F89A
:1038D0000C0C8DF8160011F8101C8DF8101012F851
:1038E000102C8DF8112013F8103C8DF8123005AA19
:1038F000032140F22640FFF747FD002840D104AAEB
:10390000032140F22A40FFF73FFD00283BD1019BF5
:10391000ADF814301B0C8DF81630009BADF810304C
:103920001B0C8DF8123014F0040F05D037238DF8DE
:10393000143027238DF8103014F0200F05D05723B2
:103940008DF8153047238DF8113014F4807F05D0A1
:1039500077238DF8163067238DF8123005AA0321DE
:103960004FF48860FFF710FD80B904AA032140F2EC
:103970003140FFF709FD60B90B4B1C8106B010BD4B
:103980004FF0FF30FAE74FF0FF30F7E74FF0FF302E
:10399000F4E74FF0FF30F1E78CBA000890BA000866
:1039A00094BA000898BA0008200B002030B585B002
:1039B000404B1B8903F0030250F82220019213F0C0
:1039C000040F01D052420192C3F3C10250F82220E9
:1039D000029213F0200F01D052420292C3F38112DF
:1039E00050F82220039213F4807F01D052420392B8
:1039F000019BD817304AA3FB023102FB00119B0F39
:103A000043EA810301930299C817A1FB021502FB47
:103A10000055890F41EA85050295039CE017A4FB38
:103A2000024102FB0012A40F44EA820403941A0E1E
:103A30008DF80020C3F307428DF80120C3F307225D
:103A40008DF802208DF803306A4604214FF474701B
:103A5000FFF79AFC40BB2B0E8DF80030C5F30743EF
:103A60008DF80130C5F307238DF802308DF803502F
:103A70006A4604214FF47570FFF786FCB8B9230E2F
:103A80008DF80030C4F307438DF80130C4F30723E9
:103A90008DF802308DF803406A4604214FF47670A9
:103AA000FFF772FC05B030BD4FF0FF30FAE74FF082
:103AB000FF30F7E7200B002009E3CA0210B588B0F9
:103AC00004460DF10600FFF705F9BDF806C04FEA00
:103AD000CC3C364B1A8902F0030354F8233005938B
:103AE00012F0040F01D05B420593C2F3C10354F8F6
:103AF0002330069312F0200F01D05B420693C2F3ED
:103B0000811354F82330079312F4807F01D05B4275
:103B100007930599CA17A1FB0C130CFB0233890FFD
:103B200041EA83010591069AD017A2FB0C230CFBF6
:103B30000033920F42EA83020692079BDC17A3FB35
:103B40000C300CFB040C9B0F43EA8C030793080E0C
:103B50008DF80800C1F307408DF80900C1F3072074
:103B60008DF80A008DF80B10110E8DF80C10C2F3B1
:103B700007418DF80D10C2F307218DF80E108DF856
:103B80000F201A0E8DF81020C3F307428DF8112074
:103B9000C3F307228DF812208DF8133002AA0C21EE
:103BA0004FF42570FFF7F0FB08B010BD200B00208C
:103BB00010B586B00446164B93E8070006AB03E940
:103BC0000700C82C1AD8C82393FBF4F3013B1A0E44
:103BD0008DF804208DF8053001AA022140F216204C
:103BE000FFF7D2FB68B903AA0C2140F6C120FFF70A
:103BF000CBFB48B9074B9C8106B010BD4FF0FF309E
:103C0000FAE74FF0FF30F7E74FF0FF30F4E700BF7F
:103C10009CBA0008200B002070B582B0044610F05A
:103C2000070F00F0AC800846B1F5C86F00F2AA801B
:103C3000FCF712FF5B49FDF71BF805460DF1030089
:103C4000FEF73CFF9DF80330023B0E2B00F29D80F7
:103C5000DFE803F0089B2C9B9B9B3C9B9B9B9B9BC7
:103C60009B9B4C004FF08D412846FCF74DFFFDF724
:103C700037F986B24C492846FCF746FFFDF730F984
:103C800080B2330A8DF804308DF80560030A8DF890
:103C900006308DF8070014F0010F37D114F0020F31
:103CA00048D114F0040F58D1002070E04FF08C413F
:103CB0002846FCF729FFFDF713F986B23B49284651
:103CC000FCF722FFFDF70CF980B2DAE74FF08B41E9
:103CD0002846FCF719FFFDF703F986B23449284658
:103CE000FCF712FFFDF7FCF880B2CAE74FF08A41FB
:103CF0002846FCF709FFFDF7F3F886B22D49284660
:103D0000FCF702FFFDF7ECF880B2BAE701AA022146
:103D10004FF4EA70FFF738FB00283AD10DF10602A4
:103D200002214FF49270FFF72FFB0028B6D04FF01E
:103D3000FF302CE001AA02214FF4EC70FFF724FBC6
:103D400050BB0DF1060202214FF49470FFF71CFBEB
:103D50000028A6D04FF0FF3019E001AA02214FF44D
:103D6000EE70FFF711FBD0B90DF1060202214FF4FE
:103D70009670FFF709FB50B14FF0FF3007E04FF0AE
:103D8000FF3004E04FF0FF3001E04FF0FF3002B0B1
:103D900070BD4FF0FF30FAE74FF0FF30F7E74FF01C
:103DA000FF30F4E700004843000040460000C045F3
:103DB000000040450000C04400B583B000238DF8EA
:103DC000073010F0010F02D030238DF8073010F0CB
:103DD000020F05D09DF8073043F00C038DF8073033
:103DE00010F0040F05D09DF8073043F003038DF861
:103DF00007300DF1070201214FF4A470FFF7C4FA58
:103E000003B05DF804FB00B583B020B1034604287D
:103E100002D9042300E00123013B8DF807300DF1A6
:103E20000702012140F24F10FFF7AEFA03B05DF830
:103E300004FB000000B583B0094BA3FB0030830AEC
:103E40008DF80430C0F387008DF8050001AA022127
:103E50004FF4EF70FFF798FA03B05DF804FB00BF72
:103E6000CDCCCCCC00B583B0094BA3FB0030830A8A
:103E70008DF80430C0F387008DF8050001AA0221F7
:103E80004FF4ED70FFF780FA03B05DF804FB00BF5C
:103E9000CDCCCCCC00B583B00E4B83FB0023C01738
:103EA000C0EBA31000FB01F10B0E8DF80430C1F341
:103EB00007438DF80530C1F307238DF806308DF8E0
:103EC000071001AA04214FF4AE70FFF75DFA03B0AA
:103ED0005DF804FBD34D621000B583B0084BA3FB23
:103EE00000308308800A8DF804008DF8053001AA9F
:103EF00002214FF4AD70FFF747FA03B05DF804FB01
:103F0000CDCCCCCC00B583B0084BA3FB00308308EC
:103F1000800A8DF804008DF8053001AA02214FF4C3
:103F2000AC70FFF731FA03B05DF804FBCDCCCCCC1C
:103F300000B585B068B10D4A01AB07CA03C31A705A
:103F400001AA09214FF49760FFF71EFA05B05DF84A
:103F500004FB074A01AB07CA03C31A7001AA09216F
:103F60004FF49760FFF710FAF0E700BFACBA000813
:103F7000B8BA000800B583B0B0B1C0238DF80430E2
:103F8000C2238DF80530C4238DF80630C6238DF882
:103F9000073001AA042140F69820FFF7F5F9FEF753
:103FA00027FC03B05DF804FB4FF08B330193F0E77F
:103FB00000B583B0B0B120238DF8043028238DF8EC
:103FC000053030238DF8063038238DF8073001AAEC
:103FD000042140F69E20FFF7D7F9FEF709FC03B055
:103FE0005DF804FB4FF0A3330193F0E72DE9F041B6
:103FF00084B0044602238DF80430CA238DF80530BE
:10400000E3238DF8063009238DF8073001AA042137
:104010006820FFF7B9F9A3238DF8043014F04008A5
:1040200000F0B080C0238DF80530C8238DF806302D
:10403000C2238DF8073014F4C07500F0AB80C423A0
:104040008DF80830CC238DF80930C6238DF80A305E
:10405000A3238DF80B308DF80C308DF80D3001AAAC
:104060000A2140F6A720FFF78FF914F0030700F0AC
:10407000998020238DF8043001AA012140F6B62052
:10408000FFF782F914F0200F00F090800120FFF775
:104090004FFFADB114F4807F00F08C80B2238DF817
:1040A00004308B238DF80530B6238DF806309B2322
:1040B0008DF8073001AA042140F6A220FFF764F929
:1040C00014F0010F00F08380F8238DF8043001AA6A
:1040D00001214FF40B60FFF757F9FA210720FFF792
:1040E0009BFD0720FFF768FE0120FFF78CFE642090
:1040F000FFF7A0FE4FF4FA70FFF7B4FEC8213F4867
:10410000FFF7C8FE2820FFF7E7FE0A20FFF7FAFEB8
:1041100014F0020F65D0D9238DF8043001AA0121D3
:1041200040F23D70FFF730F914F0040F5DD001202C
:10413000FFF720FF14F0100F5BD00120FFF738FFCE
:104140002F4E44F008037381FEF752FB0023B37334
:10415000B8F1000F01D00622B2731DB1284A937B3B
:104160000633937314F0140F03D0254A937B103356
:1041700093731FB1224A937B04339373002004B0DE
:10418000BDE8F081A3238DF805308DF806308DF859
:10419000073050E7A3238DF808308DF809308DF8EB
:1041A0000A3055E7D8238DF8043065E70020FFF783
:1041B000BFFE6EE7B0238DF8043080238DF8053004
:1041C000B4238DF8063090238DF8073072E7D8239A
:1041D0008DF8043001AA01214FF40B60FFF7D4F8E9
:1041E00096E7D8238DF8043098E70020FFF7C2FE49
:1041F000A0E70020FFF7DCFEA2E700BF09E3CA0248
:10420000200B00202DE9F04104460F4615461E46BE
:10421000FDF758FE600000F0FE00FDF789FEFDF797
:10422000BBFE88B980463846FDF782FEFDF7B4FE36
:104230004446AC4214D2305DFDF77AFEFDF7ACFE89
:1042400048B90134E4B2F4E7FDF75AFE4FF0010833
:104250004046BDE8F081FDF753FE4FF00108F7E757
:10426000FDF74EFEF4E7F8B506460F4614461D4628
:10427000FDF728FE700000F0FE00FDF759FEFDF787
:104280008BFE78B93846FDF753FEFDF785FEFDF746
:1042900019FE700040F00100C0B2FDF749FEFDF7C5
:1042A0007BFE0AE0FDF72CFE012011E00020FDF767
:1042B000C9FE2870013CE4B2013534B1012CF5D0BF
:1042C0000120FDF7BFFE2870F4E7FDF719FE204638
:1042D000F8BD38B505460C46FDF7F4FDD020FDF7D6
:1042E00027FEFDF759FE78B92846FDF721FEFDF7B8
:1042F00053FE2046FDF71CFEFDF74EFE044638B97E
:10430000FDF7FEFD204638BDFDF7FAFD0124F9E773
:10431000FDF7F6FD0124F5E708B5C10001F0F8014D
:104320001B20FFF7D6FF08BD08B5C10001F0F8015A
:104330001C20FFF7CEFF08BD08B5BB2809D86128AF
:104340000CD829280CD813280CD809280CD90521F9
:1043500000E001211A20FFF7BCFF08BD0221F9E7A8
:104360000321F7E70421F5E70621F3E710B5B0F5DF
:104370007A7F04D80446032803D8042401E04FF4CC
:104380007A744FF47A7191FBF4F1C9B20139C9B270
:104390001920FFF79EFF6008FFF7CEFF10BD10B594
:1043A0000446FDF78FFDD020FDF7C2FDFDF7F4FDBB
:1043B0002046FDF7BDFDFDF7EFFDFDF783FDD120A4
:1043C000FDF7B6FDFDF7E8FD0020FDF73BFE0446D6
:1043D000FDF796FD204610BD08B5FDF75FFE802174
:1043E0006B20FFF776FF642000F07CF800216B2043
:1043F000FFF76FFF0320FFF78FFF0020FFF794FF09
:104400003220FFF7B3FF00213820FFF762FF0021C1
:104410006A20FFF75EFF00212320FFF75AFF80216B
:104420003720FFF756FF7520FFF7B9FF682801D046
:10443000012008BD01216B20FFF74BFF00216C20FC
:10444000FFF747FF3220FFF791FF0020F1E7000060
:1044500010B504460E4B18784FF47A73B3FBF0F3A3
:104460000C4A1068B0FBF3F000F09AF868B90F2C12
:1044700001D901200AE0002221464FF0FF3000F070
:1044800057F8054B1C60002000E0012010BD00BF64
:1044900044000020080000204800002008B5074A1A
:1044A000136843F010031360032000F02FF80F206F
:1044B000FFF7CEFFFDF73EFB002008BD00200240C5
:1044C000034A1168034B1B780B441360704700BF0D
:1044D000300B002044000020014B1868704700BFDB
:1044E000300B002038B50446FFF7F6FF0546B4F15F
:1044F000FF3F02D0044B1B781C44FFF7EDFF401B2D
:10450000A042FAD338BD00BF44000020074AD36858
:1045100023F4E0631B041B0C000200F4E06003437F
:1045200043F0BF6343F40033D360704700ED00E015
:1045300000B5194BDB68C3F30223C3F1070CBCF1D0
:10454000040F28BF4FF0040C03F1040EBEF1060F58
:1045500018D9033B4FF0FF3E0EFA0CFC21EA0C0188
:1045600099400EFA03F322EA0303194300280BDBF8
:104570000901C9B200F1604000F5614080F8001304
:104580005DF804FB0023E5E700F00F000901C9B264
:10459000024B1954F4E700BF00ED00E014ED00E019
:1045A0000138B0F1807F0BD24FF0E0235861054A0B
:1045B000F02182F823100020986107221A617047C9
:1045C0000120704700ED00E070B582B00024A446E1
:1045D000A6E0804DAA4210D007D97F4DAA420CD048
:1045E00005F58035AA4208D013E0A5F58015AA424A
:1045F00003D005F57025AA4207D18A68002A58D051
:10460000012A51D04361082403E0A5F58015AA4290
:10461000F3D0BEF1FF0F4ED80646BEF1FF0F4CD8C7
:104620004FEA8C0233680F25954023EA050304FA0C
:1046300002F2134333604B6813F0805F6ED0674B18
:104640009A6942F001029A619B6903F001030193A8
:10465000019B4FEA9C02951C614B53F825600CF0BE
:1046600003039D000F23AB4026EA03065D4B9842EF
:1046700029D003F58063984200F08E8003F58063B3
:10468000984200F08B8003F58063984219D0042390
:104690001AE0CC68BDE7CC680434BAE7CC680834CB
:1046A000B7E7CC680C34B4E703610824B1E7002411
:1046B000AFE70424ADE7061DAFE7ACF108029200B6
:1046C000B0E7032300E00023AB4033430232444D04
:1046D00045F822304B6813F4803F61D0424A13689A
:1046E00043EA0E0313604B6813F4003F5ED03E4A6A
:1046F000536843EA0E0353604B6813F4801F5BD08A
:10470000394A936843EA0E0393604B6813F4001F21
:1047100058D0354AD36843EA0E03D3600CF1010C3C
:104720000A6832FA0CF353D0012303FA0CF302EABD
:10473000030E33EA0202F1D14A68122A3FF649AF6A
:10474000122A3FF666AF01A555F822F0FB45000896
:10475000934600089D460008AF460008134600082F
:1047600013460008134600081346000813460008C5
:1047700013460008134600081346000813460008B5
:1047800013460008134600081346000813460008A5
:1047900097460008A3460008012395E7022393E704
:1047A000114A136823EA0E0313609CE70E4A53680C
:1047B00023EA0E0353609FE70B4A936823EA0E0334
:1047C0009360A2E7084AD36823EA0E03D360A5E703
:1047D00002B070BD00002210000031100010024035
:1047E00000000140000801400004014083681942B4
:1047F00001D001207047002070470AB10161704765
:10480000090401617047000082B0084B1B68084A28
:10481000A2FB03235B0A00FB03F3019300BF019B90
:104820005A1E0192002BF9D102B0704708000020F7
:10483000D34D6210002800F0F18170B582B00446BB
:10484000036813F0010F2CD0994B5B6803F00C0345
:10485000042B1DD0964B5B6803F00C03082B12D081
:104860006368B3F5803F41D0002B55D103F18043FD
:1048700003F504331A6822F480321A601A6822F4AD
:1048800080221A6037E08A4B5B6813F4803FE7D0E0
:10489000874B1B6813F4003F03D06368002B00F0C4
:1048A000BF81236813F0020F75D0814B5B6813F052
:1048B0000C0F5FD07E4B5B6803F00C03082B54D0C9
:1048C0002369002B00F08A807A4B01221A60FFF7DF
:1048D00003FE0546764B1B6813F0020F75D1FFF7F8
:1048E000FBFD401B0228F5D903209EE1704A1368A6
:1048F00043F480331360636843B3FFF7EDFD05466F
:104900006B4B1B6813F4003FCBD1FFF7E5FD401B59
:104910006428F5D9032088E1B3F5A02F09D0644BB2
:104920001A6822F480321A601A6822F480221A600F
:10493000E1E703F18043A3F53C331A6842F4802297
:104940001A601A6842F480321A60D4E7FFF7C4FD97
:104950000546574B1B6813F4003FA2D0FFF7BCFD80
:10496000401B6428F5D903205FE1514B5B6813F4C9
:10497000803FA5D14E4B1B6813F0020F03D0236973
:10498000012B40F04F814A4A136823F0F803616914
:1049900043EAC1031360236813F0080F33D0A369FF
:1049A000002B5CD0434B0122C3F88024FFF794FD19
:1049B00005463F4B5B6A13F0020F21D1FFF78CFDD8
:1049C000401B0228F5D903202FE1394A136823F050
:1049D000F803616943EAC1031360DCE7354B002249
:1049E0001A60FFF779FD0546314B1B6813F0020F83
:1049F000D1D0FFF771FD401B0228F5D9032014E147
:104A00000120FFF701FF236813F0040F00F09680E8
:104A1000274BDB6913F0805F34D1254BDA6942F014
:104A20008052DA61DB6903F080530193019B012519
:104A3000214B1B6813F4807F26D0E368012B3DD007
:104A4000002B53D103F1804303F504331A6A22F09B
:104A500001021A621A6A22F004021A6233E0154B4C
:104A60000022C3F88024FFF737FD0546104B5B6A30
:104A700013F0020FC7D0FFF72FFD401B0228F5D916
:104A80000320D2E00025D3E70B4A136843F4807378
:104A90001360FFF721FD0646074B1B6813F4807F68
:104AA000CBD1FFF719FD801B6428F5D90320BCE0AA
:104AB0000010024000004242007000405F4A136A4A
:104AC00043F001031362E36833B3FFF705FD0646C5
:104AD0005A4B1B6A13F0020F2FD1FFF7FDFC801B0E
:104AE00041F288339842F3D903209EE0052B09D088
:104AF000524B1A6A22F001021A621A6A22F0040268
:104B00001A62E0E74D4B1A6A42F004021A621A6A0E
:104B100042F001021A62D6E7FFF7DEFC0646474B79
:104B20001B6A13F0020F08D0FFF7D6FC801B41F27E
:104B300088339842F3D9032077E0E5B9E369002B85
:104B400072D03E4A526802F00C02082A56D0022B5C
:104B500017D03B4B00221A66FFF7BEFC0446374BCA
:104B60001B6813F0007F47D0FFF7B6FC001B02283C
:104B7000F5D9032059E0314AD36923F08053D3613A
:104B8000DCE72F4B00221A66FFF7A6FC05462B4BED
:104B90001B6813F0007F06D0FFF79EFC401B022825
:104BA000F5D9032041E0236AB3F5803F1AD02349A9
:104BB0004B6823F47413226A606A024313434B6008
:104BC0001F4B01221A66FFF787FC04461B4B1B682C
:104BD00013F0007F0ED1FFF77FFC001B0228F5D9F0
:104BE000032022E0154A536823F40033A1680B43E5
:104BF0005360DCE7002018E0002016E0012B16D0FF
:104C00000E4B5B6803F48031226A914211D103F4A8
:104C10007013626A93420ED1002006E001207047B3
:104C2000012002E0012000E0002002B070BD012060
:104C3000FBE70120F9E70120F7E700BF0010024081
:104C40000000424286B0174B0FCB0DF1180C0CE957
:104C50000F0040F20123ADF80430134B5B6803F002
:104C60000C02082A02D0114806B07047C3F38342F1
:104C700018326A4412F8100C13F4803F0DD00A4B1E
:104C80005B68C3F3404318336B4413F8143C074A82
:104C900002FB00F0B0FBF3F0E6E7054B03FB00F08E
:104CA000E2E700BFBCC600080010024000127A0014
:104CB00000093D00002800F0A08070B50D460446B4
:104CC000524B1B6803F007038B420BD24F4A136809
:104CD00023F007030B431360136803F007038B42B1
:104CE00040F08D80236813F0020F17D013F0040FEB
:104CF00004D0474A536843F4E0635360236813F0D9
:104D0000080F04D0424A536843F460535360404A4A
:104D1000536823F0F003A1680B435360236813F03A
:104D2000010F31D06368012B20D0022B25D0384AE7
:104D3000126812F0020F64D035494A6822F003026B
:104D400013434B60FFF7C8FB0646314B5B6803F02B
:104D50000C036268B3EB820F16D0FFF7BDFB801B1C
:104D600041F288339842F0D9032045E0284A12687E
:104D700012F4003FE0D101203EE0254A126812F013
:104D8000007FD9D1012037E0204B1B6803F00703D7
:104D9000AB420AD91D4A136823F007032B43136063
:104DA000136803F00703AB422DD1236813F0040FFF
:104DB00006D0174A536823F4E063E1680B4353605D
:104DC000236813F0080F07D0114A536823F4605387
:104DD000216943EAC1035360FFF734FF0C4B5B6862
:104DE000C3F303130B4AD35CD8400B4B18600B4B37
:104DF0001868FFF72DFB002070BD012070470120CF
:104E0000FAE70120F8E70120F6E700BF00200240A2
:104E10000010024090B9000808000020480000205F
:104E2000014B1868704700BF0800002008B5FFF765
:104E3000F7FF044B5B68C3F30223034AD35CD840FB
:104E400008BD00BF00100240A0B9000808B5FFF778
:104E5000E7FF044B5B68C3F3C223034AD35CD8402B
:104E600008BD00BF00100240A0B900082DE9F047BE
:104E700082B00546884617461E46FFF72DFB0A9B63
:104E80001B1A03EB0609FFF727FB82462B4B1B6817
:104E9000C3F3CB3309FB03F301932B689C6838EA17
:104EA00004030CBF4FF0010C4FF0000CBC4540D088
:104EB000B6F1FF3FF1D0FFF70FFBA0EB0A0048452A
:104EC0000AD2B9F1000F07D0019A02B14A46019BFC
:104ED000013B01939146E0E72A68536823F0E00321
:104EE00053606B68B3F5827F0BD0AB6AB3F5005F9C
:104EF00014D0012385F85130002385F85030032069
:104F000018E0AB68B3F5004F02D0B3F5806FECD179
:104F10002A68136823F040031360E6E72A681368E1
:104F200023F4005313602A68136843F4005313609A
:104F3000DFE7002002B0BDE8F08700BF08000020D6
:104F400010B582B004460B46009200228021FFF784
:104F50008DFF08B902B010BD636D43F02003636597
:104F60000320F7E7002856D010B50446436A33B94A
:104F70004368B3F5827F05D00023C36102E00023BC
:104F8000036143610023A36294F85130002B3CD0AD
:104F9000022384F851302268136823F04003136021
:104FA000636803F48273A26802F404421343E26864
:104FB00002F400621343226902F0020213436269A1
:104FC00002F001021343A26902F400721343E26982
:104FD00002F038021343226A02F080021343A26AED
:104FE00002F40052216813430B60638B226803F0C4
:104FF000040353602268D36923F40063D361002063
:105000006065012384F8513010BD84F8503020468B
:10501000FCF756FDBCE7012070472DE9F04383B053
:105020001F460A9D90F85030012B00F01081044675
:1050300088469146012380F85030FFF74DFA064626
:1050400094F85130DBB26268012B0AD0B2F5827F4E
:1050500040F0E380A268002A40F0E980042B40F091
:10506000E880B8F1000F00F0E680B9F1000F00F021
:10507000E480002F00F0E38094F85130DBB2042B81
:1050800002D0052384F8513000236365C4F83890BA
:10509000E787A787C4F83080E786A7862364636420
:1050A00023681A6812F0400F03D11A6842F04002D8
:1050B0001A60E368B3F5006F11D063680BB1012F7C
:1050C0000BD1226B236812781A73236B013323638D
:1050D000E38E9BB2013B9BB2E38601276BE06368E2
:1050E0000BB1012F0BD1226B23681288DA60236B7E
:1050F00002332363E38E9BB2013B9BB2E38601271D
:105100001CE023689A6812F0010F0ED0E28F92B271
:105110005AB1DA68A36B1A80A36B0233A363E38FDF
:105120009BB2013B9BB2E3870127FFF7D5F9801BB8
:10513000A84203D3B5F1FF3F40F08380E38E9BB2DA
:105140001BB9E38F9BB2002B53D023689A6812F0EF
:10515000020FD6D0E28E92B2002AD2D0002FD0D049
:10516000226B1288DA60236B02332363E38E9BB2D7
:10517000013B9BB2E3860027C3E723689A6812F0DD
:10518000010F0ED0E28F92B25AB1DA68A36B1A7097
:10519000A36B0133A363E38F9BB2013B9BB2E38715
:1051A0000127FFF799F9831BAB4202D3B5F1FF3F0B
:1051B00049D1002D49D0E38E9BB213B9E38F9BB246
:1051C000BBB123689A6812F0020FD6D0E28E92B279
:1051D000002AD2D0002FD0D0226B12781A73236B02
:1051E00001332363E38E9BB2013B9BB2E38600272E
:1051F000C3E7324629462046FFF7A2FE48B9A36816
:1052000063B901932368DA6801929B680193019B5B
:1052100004E020236365012000E00220012384F8DC
:105220005130002384F8503003B0BDE8F0830220F1
:10523000F4E70220F2E70120F0E70120EEE7012089
:10524000ECE70320EAE70320E8E70320E6E7022093
:10525000EAE7000070B4036A23F001030362036A03
:105260004668826922F073020C6844EA020523F062
:1052700002028B6813430D4CA04209D00B4CA04294
:105280000DD0466085614A684263036270BC704716
:1052900023F00803CA68134323F00403EEE726F45F
:1052A00040764A6932438E691643EAE7002C014092
:1052B00030B4036A23F480730362036A4568C269E9
:1052C00022F073020C68224323F400738C6843EAD3
:1052D00004230F4CA04209D00D4CA0420ED04560D3
:1052E000C2614A68C263036230BC704723F4006342
:1052F000CC6843EA042323F48063EDE725F44055AA
:105300004C6945EA04158C6945EA0415E7E700BFD6
:10531000002C014030B4036A23F480530362036A13
:105320004468C26922F4E6420D6842EA052223F489
:1053300000538D6843EA0533074DA84206D0446008
:10534000C2614A680264036230BC704724F480443E
:105350004D6944EA8514F2E7002C014003681B4ABA
:1053600090420AD0B0F1804F07D0A2F5943290421B
:1053700003D002F58062904203D123F070034A68A3
:105380001343124A90420AD0B0F1804F07D0A2F5E1
:105390009432904203D002F58062904203D123F40C
:1053A0004073CA68134323F080034A6913430360C0
:1053B0008B68C3620B688362044B984202D001235E
:1053C000436170470B690363F9E700BF002C01409C
:1053D00040B310B5044690F83D30F3B1022384F891
:1053E0003D30214651F8040BFFF7B8FF012384F844
:1053F000463084F83E3084F83F3084F8403084F8FA
:10540000413084F8423084F8433084F8443084F8E2
:10541000453084F83D30002010BD80F83C30FCF76A
:1054200017FCDBE70120704730B4036A23F0100358
:105430000362036A4468826922F4E6420D6842EA24
:10544000052223F020038D6843EA05130E4DA84280
:1054500009D00D4DA8420ED0446082614A68826333
:10546000036230BC704723F08003CD6843EA051324
:1054700023F04003EDE724F440644D6944EA8504D9
:105480008D6944EA8504E7E7002C014038B590F8BF
:105490003C30012B60D004460D46012380F83C309F
:1054A0000C2A1AD8DFE802F0071919191D19191961
:1054B0003119191944000068FFF7CCFE226893697E
:1054C00043F0080393612268936923F00403936116
:1054D0002268936929690B439361002084F83C009A
:1054E00038BD0068FFF7A0FF2268936943F40063AA
:1054F00093612268936923F48063936122689369BE
:10550000296943EA01239361E7E70068FFF7D0FECA
:105510002268D36943F00803D3612268D36923F07A
:105520000403D3612268D36929690B43D361D4E7AB
:105530000068FFF7EFFE2268D36943F40063D3618C
:105540002268D36923F48063D3612268D36929690F
:1055500043EA0123D361C0E70220C1E701F01F0144
:10556000012303FA01FC036A23EA0C030362036AC2
:1055700002FA01F10B4303627047000010B50446C4
:10558000084651BB94F83E30DBB2013B18BF012303
:10559000002B5BD1002839D1022384F83E30012250
:1055A00001462068FFF7DAFF23682A4A93423DD07C
:1055B0002368284A93423ED0B3F1804F3BD0A2F5F6
:1055C0009432934237D002F58062934233D01A6806
:1055D00042F001021A60002039E0042908D00829AD
:1055E0000DD094F84130DBB2013B18BF0123CFE767
:1055F00094F83F30DBB2013B18BF0123C8E794F8B1
:105600004030DBB2013B18BF0123C1E7042805D0BD
:10561000082807D0022384F84130C0E7022384F829
:105620003F30BCE7022384F84030B8E75A6C42F4BC
:1056300000425A64BCE79A6802F00702062A07D0C3
:105640001A6842F001021A60002000E0012010BD3B
:105650000020FCE7002C014090F83C30012B2CD0BE
:1056600010B4012380F83C30022380F83D300368F9
:105670005A689C6822F0700C0A6842EA0C025A6070
:1056800003680F4A93420AD0B3F1804F07D0A2F5C6
:105690009432934203D002F58062934204D124F005
:1056A00080044A6814439C60012380F83D30002345
:1056B00080F83C30184610BC70470220704700BF8D
:1056C000002C014090F83C30012B22D0012380F8BF
:1056D0003C30CB6823F440738A68134323F480631F
:1056E0004A68134323F400630A68134323F4805386
:1056F0000A69134323F400534A69134323F4804394
:10570000CA69134302685364002380F83C3018468A
:10571000704702207047000010B504460268136904
:1057200023F44053C1680B43136183680269134338
:1057300042691A430168CB6823F4B05323F00C0389
:105740001343CB600268536923F4407381690B43B0
:1057500053610268134B9A4220D0FFF767FB024661
:1057600002EB820202EB820263689B00B2FBF3F25F
:105770000D48A0FB02314909642303FB11231B01DF
:105780003233A0FB03235B0903F0F00202EB0112AA
:1057900003F00F03216813448B6010BDFFF756FB25
:1057A0000246DDE7003801401F85EB5158B310B5C4
:1057B000044690F83D300BB3242384F83D30226832
:1057C000D36823F40053D3602046FFF7A5FF226877
:1057D000136923F4904313612268536923F02A0369
:1057E00053612268D36843F40053D36000202064DF
:1057F000202384F83D3084F83E3010BD80F83C30E2
:10580000FCF7F6FAD8E7012070470000014B186852
:10581000704700BF4C00002070B50D4E0D4D761B3B
:10582000B61006D0002455F8043B01349847A64230
:10583000F9D1094E094D06F097F8761BB61006D03F
:10584000002455F8043B01349847A642F9D170BDB5
:10585000D8CA0008D8CA0008E0CA0008D8CA000898
:10586000032A10B516D940EA010C1CF0030F0446B8
:105870000B4622D119462046D1F800E0D0F800C0EE
:105880000433F44504F1040417D1043A032A2046F2
:105890001946EFD8541EA2B100F1FF3C013901E0D6
:1058A000C3180CD01CF801EF11F8012FA4EB0C0366
:1058B0009645F5D0AEEB020010BD541EECE718463D
:1058C00010BD104610BD00BF830730B548D0541E30
:1058D000002A3FD00346CAB201E0013C3AD303F8A4
:1058E000012B9D07F9D1032C2DD9CDB245EA052511
:1058F0000F2C45EA054536D9A4F1100222F00F0C11
:1059000003F1200EE6444FEA121C03F1100242E9B3
:10591000045542E9025510327245F8D10CF10102EA
:1059200014F00C0F03EB021204F00F0C13D0ACF1C7
:10593000040323F003030433134442F8045B93424B
:10594000FBD10CF003042CB1CAB21C4403F8012BA8
:105950009C42FBD130BD64461346002CF4D1F9E7DC
:1059600003461446BFE71A46A446E0E70FB400B565
:10597000074A83B004AB106853F8042B8168019385
:1059800000F08CF803B05DF804EB04B0704700BF82
:105990004C00002030B5054689B008460C4600F0A2
:1059A0004FF801210223214A04940692AA6B04AC09
:1059B0000590084401940791AC680293039022B3C8
:1059C000636E13F0010FB4F90C309AB201D198054F
:1059D00025D5910406D4626E43F4005322F400529C
:1059E000A3816266284601AA214603F079F9636E15
:1059F000002814BF4FF0FF350A25DA0702D4A38927
:105A00009B0506D5284609B030BD284602F070FF38
:105A1000D6E7A06D03F00AFB284609B030BDA06DA3
:105A200003F002FBB4F90C309AB2D2E7CCB900080B
:105A3000024B01461868FFF7ADBF00BF4C000020C5
:105A400020F0030110F00300C0F1000051F8043B06
:105A500000F1040C4FEACC0C6FF000021CBF22FADC
:105A60000CF213434FF0010C4CEA0C2C4CEA0C4C9A
:105A7000A3EB0C0222EA030212EACC1204BF51F893
:105A8000043B0430F4D0C2F1000102EA0102B2FA90
:105A900082F2C2F11F0200EBD20070472DE9F04FF5
:105AA000D5B01C46914607910546099003F0B4FA1B
:105AB00002680E9410461792FFF7C2FF16901DB1B0
:105AC000AB6B002B00F01D82079A536EDD0740F18F
:105AD0002D81B2F90C2091B28F0409D4079B42F4B6
